:100000000EC015C014C013C012C011C010C00FC064
:100010000EC00DC00CC00BC00AC009C008C011241E
:100020001FBECFE5D2E0DEBFCDBF40D058C0E8CF85
:1000300087B387BB089597B321E030E0082E01C055
:10004000220F0A94EAF7922B97BB089598B321E008
:1000500030E0082E01C0220F0A94EAF7922798BBDD
:10006000089598B321E030E0082E01C0220F0A94D1
:10007000EAF7922B98BB089598B321E030E0082E60
:1000800001C0220F0A94EAF72095292328BB08957E
:1000900096B321E030E002C0220F331F8A95E2F7C9
:1000A000892F90E028233923C9010895BC9ABB9A6F
:1000B000C49AC3982FE986E891E02150804090408F
:1000C000E1F700C00000C498C39A2FE986E891E0E8
:1000D000215080409040E1F700C00000E9CFF89443
:0200E000FFCF50
:00000001FF
